{
  "_format": "hh-sol-artifact-1",
  "contractName": "Faucet",
  "sourceName": "contracts/Faucet.sol",
  "abi": [
    {
      "inputs": [
        {
          "internalType": "address",
          "name": "_tokenAddr",
          "type": "address"
        }
      ],
      "name": "transfer",
      "outputs": [],
      "stateMutability": "nonpayable",
      "type": "function"
    }
  ],
  "bytecode": "0x608060405234801561001057600080fd5b50610537806100206000396000f3fe608060405234801561001057600080fd5b506004361061002b5760003560e01c80631a69523014610030575b600080fd5b61004a600480360381019061004591906101c9565b61004c565b005b60008173ffffffffffffffffffffffffffffffffffffffff1663313ce5676040518163ffffffff1660e01b81526004016020604051808303816000875af115801561009b573d6000803e3d6000fd5b505050506040513d601f19601f820116820180604052508101906100bf919061022f565b60ff169050600081600a6100d391906103c8565b6102bc6100e09190610413565b90508273ffffffffffffffffffffffffffffffffffffffff1663a9059cbb33836040518363ffffffff1660e01b815260040161011d929190610473565b6020604051808303816000875af115801561013c573d6000803e3d6000fd5b505050506040513d601f19601f8201168201806040525081019061016091906104d4565b50505050565b600080fd5b600073ffffffffffffffffffffffffffffffffffffffff82169050919050565b60006101968261016b565b9050919050565b6101a68161018b565b81146101b157600080fd5b50565b6000813590506101c38161019d565b92915050565b6000602082840312156101df576101de610166565b5b60006101ed848285016101b4565b91505092915050565b600060ff82169050919050565b61020c816101f6565b811461021757600080fd5b50565b60008151905061022981610203565b92915050565b60006020828403121561024557610244610166565b5b60006102538482850161021a565b91505092915050565b7f4e487b7100000000000000000000000000000000000000000000000000000000600052601160045260246000fd5b60008160011c9050919050565b6000808291508390505b60018511156102e2578086048111156102be576102bd61025c565b5b60018516156102cd5780820291505b80810290506102db8561028b565b94506102a2565b94509492505050565b6000826102fb57600190506103b7565b8161030957600090506103b7565b816001811461031f576002811461032957610358565b60019150506103b7565b60ff84111561033b5761033a61025c565b5b8360020a9150848211156103525761035161025c565b5b506103b7565b5060208310610133831016604e8410600b841016171561038d5782820a9050838111156103885761038761025c565b5b6103b7565b61039a8484846001610298565b925090508184048111156103b1576103b061025c565b5b81810290505b9392505050565b6000819050919050565b60006103d3826103be565b91506103de836103be565b925061040b7fffffffffffffffffffffffffffffffffffffffffffffffffffffffffffffffff84846102eb565b905092915050565b600061041e826103be565b9150610429836103be565b9250828202610437816103be565b9150828204841483151761044e5761044d61025c565b5b5092915050565b61045e8161018b565b82525050565b61046d816103be565b82525050565b60006040820190506104886000830185610455565b6104956020830184610464565b9392505050565b60008115159050919050565b6104b18161049c565b81146104bc57600080fd5b50565b6000815190506104ce816104a8565b92915050565b6000602082840312156104ea576104e9610166565b5b60006104f8848285016104bf565b9150509291505056fea2646970667358221220d1e095f1df829ef74b839f6612177af84ca26affd3e78a4918be96cde43b15e264736f6c63430008110033",
  "linkReferences": {},
  "deployedLinkReferences": {}
}